S01300005350495F444953502056332E73726563ED
S11300000C94B6000C94D3000C94D3000C94D3003D
S11300100C94D3000C94D3000C94D3000C94D30010
S11300200C94D3000C94D3000C94D9080C94D300F2
S11300300C94D3000C94D3000C94E9070C94D300D3
S11300400C9423080C947E080C94D3000C94D300D5
S11300500C949B090C94D3000C94D3000C94D300FF
S11300600C94D3000C94D3000C94D3000C94D300C0
S11300700C94D3000C94D3000C94D3000C94D300B0
S11300800C94D3000C94D3000C94D3000C94D300A0
S11300900C94D3000C94D3000C94D3000C94D30090
S11300A00C94D3000C94D3000C94D3000C94D30080
S11300B00C94D3000C94D3000C94D3000C94D30070
S11300C00C94D3000C94D3000C94D3000C94D30060
S11300D00C94D3000C94D3000C94D3000C94D30050
S11300E00C94D3000C94D3000C94D3000C94D30040
S11300F00C94D3000C94D3000C94D3000C94D30030
S11301000C94D3000C94D3000C94D3000C94D3001F
S11301100C94D3000C94D3000C94D3000C94D3000F
S11301200C94D3000C94D3000C94D3000C94D300FF
S11301300C94D3000C94A2070C94D3000C94D10615
S11301400C94EB060C94D3000C94D3000C94D300C1
S11301500C94D3000C94D3000C94D3000C94D300CF
S11301600C941C090C94D3000C94D30011241FBECE
S1130170CFEFCDBFDFE2DEBF11E2A0E0B0E2ECEBF7
S1130180F9E102C005900D92AC31B107D9F721E233
S1130190ACE1B1E201C01D92AB39B207E1F70E94B4
S11301A0E5090C94DC0C0C940000E0E5F0E080819F
S11301B082608083E1E5F0E0808181FFFDCF88EDFE
S11301C084BF81E0809340000895E0E5F0E0808101
S11301D084608083E1E5F0E0808182FFFDCF85E0EB
S11301E080934300E1E0F4E0808180FDFDCF81E075
S11301F080930004E1E0F4E0808180FDFDCF81E0A4
S1130200809302048FEF93E080930A0490930B048D
S1130210E1E0F4E0808180FDFDCF08958EE58093D8
S1130220C00880E180934506089588EB80934106D9
S113023080E1809346068CE08093C308E2ECF8E00A
S113024080818823ECF7E2ECF8E080818068808389
S113025080E180934506E7ECF0E03197F1F700C0C8
S113026000008093460688E38093C308E2ECF8E03C
S113027080818823ECF7E2ECF8E080818068808359
S113028080E180934506E7ECF0E03197F1F700C098
S113029000008093460681E08093C308E2ECF8E016
S11302A080818823ECF7E2ECF8E080818068808329
S11302B080E18093450687EC90E00197F1F700C058
S11302C00000EFE9F8E23197F1F700C0000008956B
S11302D087E0809300098BE88093030983E795E521
S11302E0809326099093270981E08093060981E091
S11302F090E0809328099093290910922A0910927A
S11303002B0984E080934606E2E5F6E08BE18083E6
S113031080818064808382E680938301089587E0EE
S11303208093A200789408951092280A1092290AC2
S113033081E08093810682E08093000A83E18093C8
S1130340010A8EEF9FEF8093260A9093270A08955F
S113035080E38093660683E0809374068093750639
S11303608CE6809380018DE68093810189E08093FF
S113037088011092890181E08093000888E68093C7
S1130380030881E090E080932808909329088FE384
S113039091E080932A0890932B08089584E0809339
S11303A0620688E5809372068AE68093820185E07E
S11303B080934008109241088AE88093430887E5B7
S11303C092E080936608909367088BE08093A50978
S11303D080E88093A60983E98093A7090895CF93C1
S11303E061E080919A21813009F060E0C62FC195C7
S11303F083E190E00E94AF0C2091272130912821C5
S11304008217930741F0609127217091282183E19D
S113041090E00E94D70C85E190E00E94AF0C2091FF
S11304200120309102208217930741F0609101204E
S11304307091022085E190E00E94D70C80E190E069
S11304400E949F0C8C1729F06C2F80E190E00E9491
S1130450B40CCF9108954F925F926F927F928F92D6
S11304609F92AF92BF92CF92DF92EF92FF920F933F
S11304701F93CF93DF93CDB7DEB7A197CDBFDEBF78
S11304808FE291E24FE451E2DC01BC01609570958A
S113049008E014E03D91E0915021F0915121EA0FE0
S11304A0FB1FE60FF71F2081321739F0F801108285
S11304B0118210922C2110922D214A175B0751F7BB
S11304C0A0900804B0900904C0905021D09051210C
S11304D0BE016F5F7F4F2091532130915421FB0166
S11304E046016894EE24E5F811E0A11612E0B10685
S11304F008F4D0C0D901FC90FF2009F4CBC0F090DF
S11305009721F110CBC0C6C0D401FD904D01DC0190
S1130510FD92CD013196BFEFCB1ADB0A2F5F3F4F1F
S11305204817590709F7E5E5F1E280E0D12C3FEFE0
S1130530DB019D91BD012081291739F090833F3F54
S113054019F4D82E382F01C0D82E31968F5F8032FF
S113055079F73F3F09F4A4C0303118F080E3830FEA
S113056001C0832F806890E1909346068093C3086E
S1130570E2ECF8E080818823ECF7E2ECF8E080819B
S113058080688083E5E4F6E080E1808387EC90E096
S11305900197F1F700C0000088E080839AE09A9503
S11305A0F1F700C0432F50E060E070E08D2C912CF7
S11305B0A12CB12C84169506A606B70608F462C0D1
S11305C0A32FB0E0FD01EB5AFE4D2F0106E416E027
S11305D06894CC24C4F89C2D0F2EF3ECEF2EF8E095
S11305E0FF2EF02DE2ECF8E025E436E06894772461
S11305F073F80F2EF0EC6F2EF02DD2018D912D019A
S1130600D8019C93D7018C9380818823ECF7808157
S113061080688083D9019C93A7ECB0E01197F1F72F
S113062000C000004F3051056105710509F5BFE0B8
S1130630DB1641F1D8017C92BAE0BA95F1F700C01B
S1130640D801CC92D7016C9280818823ECF7808109
S113065080688083D901CC92A7ECB0E01197F1F7C0
S113066000C00000D9017C92BAE0BA95F1F700C04D
S11306704F5F5F4F6F4F7F4F84169506A606B706F0
S113068008F0BBCF88E080934606EAE0EA95F1F7EC
S113069000C006C0D601FC90F08236CFE08234CF91
S11306A0A196CDBFDEBFDF91CF911F910F91FF9037
S11306B0EF90DF90CF90BF90AF909F908F907F90FE
S11306C06F905F904F9008952F923F924F925F9258
S11306D06F927F928F929F92AF92BF92CF92DF924E
S11306E0EF92FF920F931F93CF93DF93CDB7DEB7B3
S11306F02E97CDBFDEBF562E6C01E12CF12C00E00D
S113070010E098018983DA82EB82FC820D831E83D8
S11307102F8338874F3F09F06CC03EC02A2F3B2DF2
S11307204C2D5D2D6E2D7F2D802F912F01E00E9489
S1130730500C322E432E642E752E6A877987B82F7B
S1130740A92F02E00E94500CA22EB32EC42ED52E47
S1130750E62EF72E082F192F232D342D462D572D35
S11307606A8579858B2F9A2F0E94690CA22FB32E4C
S1130770C42ED52EE62EF72E082F192F3196E81504
S1130780F90564F213C0AAE0B12CC12CD12CE12CE0
S1130790F12C00E010E00AC0812C912CAAE0B12CCD
S11307A0C12CD12CE12CF12C00E010E08114910437
S11307B009F41BC129813A814B815C816D817E8161
S11307C08F819885AA2E0E947B0C0CF4FDC00FEF3C
S11307D0801A900A12E081169104ACF2AAE0B12CBE
S11307E0C12CD12CE12CF12C00E010E0E1E0F0E090
S11307F095CF842F90E01C0121E0221A3108332088
S11308000CF401C1852D90E08B879C87412C512CE1
S113081092E0291631047CF12AE030E040E050E017
S113082060E070E080E090E0E1E0F0E001E00E9450
S1130830500C622E732E842E952E6A877987B82FDA
S1130840A92F02E00E94500CA22EB32EC42ED52E46
S1130850E62EF72E082F192F262D372D482D592D2A
S11308606A8579858B2F9A2F0E94690C3196E2153F
S1130870F305E1F608C02AE030E040E050E060E033
S113088070E080E090E02114310449F02D87732E4C
S1130890842E952E6E8779878A87692E09C001E098
S11308A00D87712C812C912C1E8619861A86612C39
S11308B0AD84B72CC82CD92CEE84F9840A85162D66
S11308C0242D352D952D990F990B492F592F692FCB
S11308D0792F892F0E94F70BA22EB32EC42ED52E6A
S11308E0E62EF72E082F192F29813A814B815C813E
S11308F06D817E818F8198850E94720CA0E00E9498
S1130900840C24F01FEF411A510A82CF2D853E85B5
S113091014141504ECF5A20141505109952F990FB7
S1130920990BA22EB72CC82CD92CE32EF9840A8556
S1130930162D242F352F492F592F692F792F892FC1
S11309400E94F70BA22EB32EC42ED52EE62EF72E20
S1130950082F192F29813A814B815C816D817E8119
S11309608F8198850E94720C29833A834B835C8320
S11309706D837E838F839887E0915021F09151217C
S11309808B859C85E80FF91F8FE2840D80830DC051
S1130990E0915021F0915121CB84DC84EC0DFD1DBC
S11309A00F2EF0E3DF2EF02DD08201E0201A310863
S11309B02B853C852F5F3F4F2B873C873FEF2316CA
S11309C0330609F023CF1FC0140181E0281A31082F
S11309D016CF9FEF891A990AAAE0B12CC12CD12C09
S11309E0E12CF12C00E010E0E1CE29813A814B8129
S11309F05C816D817E818F819885A0E00E94840C4A
S1130A0019F314F3E6CF2E96CDBFDEBFDF91CF915D
S1130A101F910F91FF90EF90DF90CF90BF90AF9018
S1130A209F908F907F906F905F904F903F902F900A
S1130A30089560935221FC019191992379F080915A
S1130A405221A0915021B0915121A80FB11D9C9326
S1130A50809152218F5F80935221EECF0895CF92DF
S1130A60DF92EF92FF92BC0180E090E00E94D30AF3
S1130A706B017C019B01AC010E94660B24EA3DE8FA
S1130A8043EE5DE30E94660B0E94A40A6093380A59
S1130A907093390A2FE832EC45EF50E4C701B601F0
S1130AA00E94320A0E94A40ADC01CB0143E06CE1FB
S1130AB00E946403FF90EF90DF90CF900895CF934E
S1130AC0DF93C0912008D0912108BE0180E090E01E
S1130AD00E94D30A27ED3FED4FE355E40E94610BDA
S1130AE0181634F0C830D10528F4C0E0D0E002C0B4
S1130AF0C0E0DCE0D695C795D695C795C09327216D
S1130B00D093282180912721909128210E942F059C
S1130B10DF91CF910895811133C08091972188236B
S1130B2031F08AEE90E2809353219093542184E231
S1130B3090E2809350219093512110929A21E6E4FF
S1130B40F8E0808183608083E3EAF9E08081806259
S1130B508083E4EAF9E080818061808380910120D0
S1130B609091022043E066E10E9464038091012099
S1130B709091022043E06CE101960E946403089581
S1130B80813041F580919721882331F086E690E207
S1130B90809353219093542183E090E280935021D9
S1130BA09093512181E080939A21E6E4F8E08081DA
S1130BB08C7F8083E3EAF9E080818F7D8083E4EA9F
S1130BC0F9E080818F7E8083809127219091282174
S1130BD00E942F05089583E190E00E94AF0C80935A
S1130BE027219093282185E190E00E94AF0C809307
S1130BF001209093022080E190E00E949F0C8823C2
S1130C0051F080912721909128210E942F0581E0A5
S1130C100E948B05089580E00E948B050895CF9370
S1130C2090911D21981781F0C82F882331F06FE02F
S1130C308BE091E20E94190505C06FE082E191E228
S1130C400E941905C0931D21CF9108958130D9F0D8
S1130C5030F08230F1F1833009F464C008951092C9
S1130C609921E0E0F8E080818E7F8083E6E0F8E07F
S1130C7080818E7F8083E7E0F8E080818A7F8083B3
S1130C800E94EF01089580EA90E0809320089093F9
S1130C902108E1E0F8E08081887F808380E491E0AE
S1130CA08093260890932708E6E0F8E0808181602D
S1130CB0808391E090931E21E7E0F8E080818A7FB1
S1130CC0808390939921E0E0F8E0808181608083C3
S1130CD0089582E080939921E0E0F8E080818160CA
S1130CE08083E1E0F8E08081887F808380E491E084
S1130CF0809326089093270880EA90E08093200848
S1130D0090932108E6E0F8E080818E7F8083E7E01D
S1130D10F8E080818560808381E080932021809346
S1130D201F21089583E080939921E0E0F8E0808119
S1130D3081608083E1E0F8E0808187608083E6E081
S1130D40F8E080818E7F8083E7E0F8E080818A7F0D
S1130D50808388E09CE08093260890932708809104
S1130D60272190912821880F991F880F991F80931C
S1130D70200890932108089580E00E94260686E7C3
S1130D8091E280935321909354211092972182E110
S1130D909AE7809326099093270980E00E940F0622
S1130DA008951F920F920FB60F9211248F93EF9311
S1130DB0FF93E2E5F6E0808180648083E7E0F9E078
S1130DC080818E7F8083FF91EF918F910F900FBE72
S1130DD00F901F9018951F920F920FB60F92112427
S1130DE08F939F93EF93FF9388EE93E0809326096C
S1130DF09093270910921C21E7E0F9E080818B7F12
S1130E008083FF91EF919F918F910F900FBE0F9070
S1130E101F9018958091972181110FC088EE93E05F
S1130E20809326099093270981E08093972110925B
S1130E30982110922C2110922D2180919A218111B8
S1130E403CC080919821823011F128F4882341F02C
S1130E50813081F032C0833021F1843061F12DC0C2
S1130E608AEE90E2809353219093542181E00E9472
S1130E70260623C089EC90E2809353219093542159
S1130E8084E68093002082E00E94260616C088EA49
S1130E9090E280935321909354218AE08093002020
S1130EA04BC087E890E2809353219093542181E0D2
S1130EB08093002041C00E94BC0680919A21813019
S1130EC0D9F580919821813071F018F0823091F138
S1130ED033C086E690E2809353219093542181E0BD
S1130EE00E94260629C081E090E080932009909317
S1130EF021098BE197EB809326099093270910929F
S1130F002A0910922B09ECE0F9E080818062808349
S1130F1081E080931C21E7E0F9E080818460808394
S1130F2085E490E2809353219093542183E00E94BE
S1130F30260602C00E94BC06809198218F5F809390
S1130F40982108951F920F920FB60F9211242F9398
S1130F503F934F935F936F937F938F939F93AF933D
S1130F60BF93EF93FF9380911C21882389F081E044
S1130F700E940F06E7E0F9E080818B7F8083109266
S1130F801C2188EE93E0809326099093270902C0E0
S1130F900E940A0780911C2181110AC0E2E5F6E053
S1130FA080818F7B8083E7E0F9E0808181608083AA
S1130FB0FF91EF91BF91AF919F918F917F916F912D
S1130FC05F914F913F912F910F900FBE0F901F9003
S1130FD018951F920F920FB60F9211242F933F93DF
S1130FE04F935F936F937F938F939F93AF93BF932D
S1130FF0EF93FF9380EA90E0809320089093210878
S113100080911E2181110CC080919A21813021F49C
S113101080E00E948B0506C081E00E948B0502C01F
S113102010921E21FF91EF91BF91AF919F918F91EB
S11310307F916F915F914F913F912F910F900FBED0
S11310400F901F9018951F920F920FB60F921124B4
S11310502F933F934F935F936F937F938F939F93BC
S1131060AF93BF93EF93FF9380912021811133C0FD
S113107080912121882319F0109221212EC081E032
S113108080932221809101209091022020910020C0
S1131090821B91091816190604F5209100208091ED
S11310A0012090910220821B91098093012090934A
S11310B00220809101209091022043E066E10E9489
S11310C06403809101209091022043E06CE1019639
S11310D00E94640302C010922021FF91EF91BF91FE
S11310E0AF919F918F917F916F915F914F913F91BC
S11310F02F910F900FBE0F901F9018951F920F9273
S11311000FB60F9211242F933F934F935F936F93D6
S11311107F938F939F93AF93BF93EF93FF938091AC
S11311201F21811133C080912221882319F010924C
S113113022212EC081E080932121209100208091E2
S1131140012090910220820F911D8115924004F597
S1131150209100208091012090910220820F911D06
S1131160809301209093022080910120909102208D
S113117043E066E10E946403809101209091022083
S113118043E06CE101960E94640302C010921F21A7
S1131190FF91EF91BF91AF919F918F917F916F914B
S11311A05F914F913F912F910F900FBE0F901F9021
S11311B018951F920F920FB60F9211242F933F93FD
S11311C04F935F936F937F938F939F93AF93BF934B
S11311D0EF93FF9380911D21882329F010922C21F5
S11311E010922D2109C080912C2190912D210196DE
S11311F080932C2190932D2180912C2190912D214D
S1131200409748F010921C21E7E0F9E080818B7F41
S113121080830E94BC06FF91EF91BF91AF919F9193
S11312208F917F916F915F914F913F912F910F908B
S11312300FBE0F901F9018951F920F920FB60F922A
S113124011242F933F934F935F936F937F938F93C7
S11312509F93AF93BF93EF93FF932091A00930E046
S113126040912521509126218091012090910220C6
S11312704817590731F4922F88278093232190939C
S113128024218091012090910220409125215091A8
S11312902621019684179507A9F480912321909122
S11312A02421822B932B80932321909324218091BA
S11312B02321909124218093380A9093390A81E064
S11312C080932E2180912921882359F081E08093F5
S11312D02E218091252190912621892B11F4232BF5
S11312E071F010922A2110922B2180912521909146
S11312F02621019680932521909326210BC01092DC
S113130029216AE08DE091E20E94190581E0809331
S11313102E21E7CFFF91EF91BF91AF919F918F91D4
S11313207F916F915F914F913F912F910F900FBEDD
S11313300F901F9018951F920F920FB60F921124C1
S11313402F933F934F935F936F937F938F939F93C9
S1131350AF93BF93CF93EF93FF93109225211092F5
S1131360262180912A2190912B21019680932A2174
S113137090932B2180912A2190912B2185349340A5
S113138090F08091292181110EC0C1E0C0932921E0
S11313906AE084E191E20E941905C0932E21109223
S11313A02A2110922B21FF91EF91CF91BF91AF9100
S11313B09F918F917F916F915F914F913F912F9169
S11313C00F900FBE0F901F90189588EB80934106E5
S11313D00E94D5002FEF85ED96E02150804090408B
S11313E0E1F700C000000E9494010E94EB050E94F6
S11313F00E012FEF83EC99E0215080409040E1F7FB
S113140000C000000E9415010E9468010E94A8010A
S11314100E94E5000E94CE010E942B020E948F01CF
S1131420C1E080919721882359F0809199218330DC
S113143011F40E945F050E942B02C0932E2108C064
S113144080912E21882321F00E942B0210922E21BC
S11314502FEF83EF91E0215080409040E1F700C0EE
S11314600000DFCF0E94460A0C94270B0E94200B39
S113147058F00E94190B40F029F45F3F29F00C94B6
S1131480100B51110C945B0B0C94160B0E94380B2F
S113149068F39923B1F3552391F3951B550BBB279F
S11314A0AA2762177307840738F09F5F5F4F220FE4
S11314B0331F441FAA1FA9F335D00E2E3AF0E0E8DB
S11314C032D091505040E695001CCAF72BD0FE2F25
S11314D029D0660F771F881FBB1F261737074807B9
S11314E0AB07B0E809F0BB0B802DBF01FF27935871
S11314F05F4F3AF09E3F510578F00C94100B0C941A
S11315005B0B5F3FE4F3983ED4F38695779567953C
S1131510B795F7959F5FC9F7880F911D96958795A5
S113152097F90895E1E0660F771F881FBB1F6217C4
S113153073078407BA0720F0621B730B840BBA0B82
S1131540EE1F88F7E09508950E94400B88F09F579E
S113155098F0B92F9927B751B0F0E1F0660F771FD3
S1131560881F991F1AF0BA95C9F714C0B13091F0C9
S11315700E945A0BB1E008950C945A0B672F782FF0
S11315808827B85F39F0B93FCCF38695779567958E
S1131590B395D9F73EF490958095709561957F4FFA
S11315A08F4F9F4F0895E89409C097FB3EF49095A0
S11315B08095709561957F4F8F4F9F4F9923A9F028
S11315C0F92F96E9BB279395F695879577956795B7
S11315D0B795F111F8CFFAF4BB0F11F460FF1BC0FB
S11315E06F5F7F4F8F4F9F4F16C0882311F096E98E
S11315F011C0772321F09EE8872F762F05C066233C
S113160071F096E8862F70E060E02AF09A95660FF4
S1131610771F881FDAF7880F9695879597F90895AD
S113162097F99F6780E870E060E008959FEF80EC91
S1131630089500240A941616170618060906089534
S113164000240A9412161306140605060895092E9A
S11316500394000C11F4882352F0BB0F40F4BF2B09
S113166011F460FF04C06F5F7F4F8F4F9F4F089549
S113167057FD9058440F551F59F05F3F71F047953F
S1131680880F97FB991F61F09F3F79F08795089524
S1131690121613061406551FF2CF4695F1DF08C043
S11316A0161617061806991FF1CF86957105610560
S11316B008940895E894BB2766277727CB0197F908
S11316C008950E94D30B08F48FEF08950E94790BBC
S11316D00C94270B0E94190B38F00E94200B20F069
S11316E0952311F00C94100B0C94160B11240C94EC
S11316F05B0B0E94380B70F3959FC1F3950F50E07C
S1131700551F629FF001729FBB27F00DB11D639FAF
S1131710AA27F00DB11DAA1F649F6627B00DA11D55
S1131720661F829F2227B00DA11D621F739FB00DFB
S1131730A11D621F839FA00D611D221F749F33276B
S1131740A00D611D231F849F600D211D822F762F04
S11317506A2F11249F5750409AF0F1F088234AF0E1
S1131760EE0FFF1FBB1F661F771F881F915050404D
S1131770A9F79E3F510580F00C94100B0C945B0B61
S11317805F3FE4F3983ED4F3869577956795B795D4
S1131790F795E7959F5FC1F7FE2B880F911D9695EE
S11317A0879597F90895990F0008550FAA0BE0E85B
S11317B0FEEF16161706E807F907C0F0121613060F
S11317C0E407F50798F0621B730B840B950B39F44F
S11317D00A2661F0232B242B252B21F408950A26B5
S11317E009F4A140A6958FEF811D811D0895DF9313
S11317F0CF931F930F939A9DF02D219FF00D8B9DF6
S1131800F00D8A9DE02DF10D039FF00D029FE00D78
S1131810F11D4E9DE00DF11D5E9DF00D4F9DF00DEF
S11318207F936F93BF92AF925F934F93D5010E94C2
S1131830900C8B01AC01D7010E94900CEB01E80FD6
S1131840F91FD6010E94470C2F913F91D6010E94A7
S1131850900CC60FD71FE81FF91FAF91BF910E94CC
S1131860470C2F913F910E94900CC60FD71FE81F81
S1131870F91FD6010E94900CE60FF71F9801BE01D4
S1131880CF0111240F911F91CF91DF9108950E94F0
S1131890900C460F571FC81FD91F08F4319608959E
S11318A00F93083090F0982F872F762F652F542FA1
S11318B0432F322F22270850F4CF220F331F441F07
S11318C0551F661F771F881F991F0A95B2F70F913E
S11318D008952A0D3B1D4C1D5D1D6E1D7F1D801F2F
S11318E0911F08952A193B094C095D096E097F0966
S11318F0800B910B08952A153B054C055D056E057B
S11319007F058007910708950024A7FD00942A17F6
S11319103005400550056005700580059005089563
S1131920A29FB001B39FC001A39F700D811D11241C
S1131930911DB29F700D811D1124911D089503D036
S1131940808199270895E0ECF1E0378537FDFDCFDC
S1131950348538603487FC01E050F04F08950E94CC
S1131960A30C808191810895262FE0ECF1E0378566
S113197037FDFDCF3485377F3487378531FF09C084
S113198036E3328738ED34BF31E03387378537FDAE
S1131990FDCF33E33287808391831282248325E34E
S11319A0228728ED31E024BF3387019608950E94F1
S10F19B0B40C272F0C94B50CF894FFCF56
S11319BC0101004D6F64653A204D616E75616C20B8
S11319CC2020204272696768746E6573733A202014
S11319DC202025004D6F64653A20444D582020206A
S11319EC202020204368616E3A20202020202620CD
S11319FC2020202000000000000000000000000057
S1131A0C00000000000000000000000000000000C6
S1131A1C00010101000000000000000001010101AF
S1131A2C01010000000000000000000000000000A4
S1131A3C0000000000000000000000000000000096
S1131A4C0000000000000000000000000000000185
S1131A5C0000000000010000000000000000000075
S1131A6C0000000000000000000000000000000165
S1131A7C0000000000010000000000000000000055
S1131A8C0000000000000000000000000000000145
S1131A9C0000000000010000000000000000000035
S1131AAC0101010000000000000000000000000023
S1131ABC0000000000000000000000500020202066
S10F1ACC202020004E4F20444D58000004
S9030000FC
