S01300005350495F444953502056332E73726563ED
S11300000C94FE000C941B010C941B010C941B011A
S11300100C941B010C941B010C941B010C941B01EC
S11300200C941B010C941B010C94FB080C941B01F5
S11300300C941B010C941B010C944D080C941B0193
S11300400C941B010C941B010C941B010C941B01BC
S11300500C94CB090C941B010C941B010C941B01F4
S11300600C941B010C941B010C941B010C941B019C
S11300700C941B010C941B010C941B010C941B018C
S11300800C941B010C941B010C941B010C941B017C
S11300900C941B010C941B010C941B010C941B016C
S11300A00C941B010C941B010C941B010C941B015C
S11300B00C941B010C941B010C941B010C941B014C
S11300C00C941B010C941B010C941B010C941B013C
S11300D00C941B010C941B010C941B010C941B012C
S11300E00C941B010C941B010C941B010C941B011C
S11300F00C941B010C941B010C941B010C941B010C
S11301000C941B010C941B010C941B010C941B01FB
S11301100C941B010C941B010C941B010C941B01EB
S11301200C941B010C941B010C941B010C941B01DB
S11301300C941B010C9406080C941B010C943507B9
S11301400C944F070C941B010C941B010C941B0181
S11301500C941B010C941B010C941B010C941B01AB
S11301600C943E090C941B010C941B010C941B0170
S11301700C941B010C941B010C941B010C941B018B
S11301800C941B010C941B010C941B010C941B017B
S11301900C941B010C941B010C941B010C941B016B
S11301A00C941B010C941B010C941B010C941B015B
S11301B00C941B010C941B010C941B010C941B014B
S11301C00C941B010C941B010C941B010C941B013B
S11301D00C941B010C941B010C941B010C941B012B
S11301E00C941B010C941B010C941B010C941B011B
S11301F00C941B010C941B010C941B0111241FBEB5
S1130200CFEFCDBFDFE2DEBF11E2A0E0B0E2E4E178
S1130210FAE102C005900D92AC31B107D9F721E2A1
S1130220ACE1B1E201C01D92A739B207E1F70E9427
S1130230110A0C94080D0C940000E0E5F0E08081B4
S113024082608083E1E5F0E0808181FFFDCF8FE370
S11302509FE10197F1F700C0000088ED84BF81E0C1
S1130260809340008FE39FE10197F1F700C0000005
S11302700895E0E5F0E0808184608083E1E5F0E0CA
S1130280808182FFFDCF85E080934300E1E0F4E0CC
S1130290808180FDFDCF81E080930004E1E0F4E003
S11302A0808180FDFDCF81E0809302048FEF93E095
S11302B080930A0490930B04E1E0F4E0808180FDD4
S11302C0FDCF08958EE58093C00880E180934506B4
S11302D0089588EB8093410680E1809346068CE084
S11302E08093C308E2ECF8E080818823ECF7E2EC29
S11302F0F8E080818068808380E180934506E7ECA4
S1130300F0E03197F1F700C000008093460688E3DF
S11303108093C308E2ECF8E080818823ECF7E2ECF8
S1130320F8E080818068808380E180934506E7EC73
S1130330F0E03197F1F700C000008093460681E0B9
S11303408093C308E2ECF8E080818823ECF7E2ECC8
S1130350F8E080818068808380E18093450687ECA3
S113036090E00197F1F700C00000EFE9F8E231975F
S1130370F1F700C00000089587E0809300098BE83E
S11303808093030984E89EE18093260990932709CA
S113039081E08093060981E090E08093280990939E
S11303A0290910922A0910922B0984E080934606A9
S11303B0E2E5F6E08BE1808380818064808382E6DD
S11303C080938301089587E08093A2007894089530
S11303D01092280A1092290A81E08093000A83E18E
S11303E08093010A8EEF9FE38093260A9093270A55
S11303F02FEF89EF90E0215080409040E1F700C05A
S11304000000E1E8F6E0808181608083089580E364
S11304108093660683E080937406809375068CE669
S1130420809380018DE68093810189E08093880127
S11304301092890181E08093000888E68093030884
S113044081E090E080932808909329088FE391E05D
S113045080932A0890932B08089584E08093620681
S113046098E5909372069AE69093820180934008EF
S1130470109241088AE8809343088DE591E08093C7
S11304806608909367088BE08093A50980E88093C1
S1130490A60983E98093A7090895CF9361E0809129
S11304A09621813009F060E0C62FC19583E190E088
S11304B00E94DB0C20912321309124218217930781
S11304C041F0609123217091242183E190E00E9406
S11304D0030D85E190E00E94DB0C20910120309116
S11304E002208217930741F060910120709102204D
S11304F085E190E00E94030D80E190E00E94CB0C26
S11305008C1729F06C2F80E190E00E94E00CCF91D1
S113051008954F925F926F927F928F929F92AF92C3
S1130520BF92CF92DF92EF92FF920F931F93CF93DC
S1130530DF93CDB7DEB7A197CDBFDEBF8BE291E2EB
S11305404BE451E2DC01BC016095709508E014E0D5
S11305503D91E0914C21F0914D21EA0FFB1FE60FF4
S1130560F71F2081321739F0F8011082118210929E
S11305702821109229214A175B0751F7A0900804FB
S1130580B0900904C0904C21D0904D21BE016F5F02
S11305907F4F20914F2130915021FB0146016894F7
S11305A0EE24E5F811E0A11612E0B10608F4D0C07B
S11305B0D901FC90FF2009F4CBC0F0909321F110F5
S11305C0CBC0C6C0D401FD904D01DC01FD92CD012C
S11305D03196BFEFCB1ADB0A2F5F3F4F48175907FD
S11305E009F7E1E5F1E280E0D12C3FEFDB019D91D9
S11305F0BD012081291739F090833F3F19F4D82E8B
S1130600382F01C0D82E31968F5F803279F73F3F63
S113061009F4A4C0303118F080E3830F01C0832FA4
S1130620806890E1909346068093C308E2ECF8E07A
S113063080818823ECF7E2ECF8E080818068808395
S1130640E5E4F6E080E1808387EC90E00197F1F740
S113065000C0000088E080839AE09A95F1F700C01A
S1130660432F50E060E070E08D2C912CA12CB12C34
S113067084169506A606B70608F462C0A32FB0E058
S1130680FD01EF5AFE4D2F0106E416E06894CC24D8
S1130690C4F89C2D0F2EF3ECEF2EF8E0FF2EF02D76
S11306A0E2ECF8E025E436E06894772473F80F2E42
S11306B0F0EC6F2EF02DD2018D912D01D8019C9379
S11306C0D7018C9380818823ECF7808180688083B4
S11306D0D9019C93A7ECB0E01197F1F700C000009A
S11306E04F3051056105710509F5BFE0DB1641F195
S11306F0D8017C92BAE0BA95F1F700C0D801CC9247
S1130700D7016C9280818823ECF780818068808394
S1130710D901CC92A7ECB0E01197F1F700C000002A
S1130720D9017C92BAE0BA95F1F700C04F5F5F4FF0
S11307306F4F7F4F84169506A606B70608F0BBCF09
S113074088E080934606EAE0EA95F1F700C006C027
S1130750D601FC90F08236CFE08234CFA196CDBF93
S1130760DEBFDF91CF911F910F91FF90EF90DF904B
S1130770CF90BF90AF909F908F907F906F905F903D
S11307804F9008952F923F924F925F926F927F9273
S11307908F929F92AF92BF92CF92DF92EF92FF928D
S11307A00F931F93CF93DF93CDB7DEB72E97CDBFB3
S11307B0DEBF562E6C01E12CF12C00E010E0980114
S11307C08983DA82EB82FC820D831E832F83388730
S11307D04F3F09F06CC03EC02A2F3B2D4C2D5D2DA0
S11307E06E2D7F2D802F912F01E00E947C0C322EE4
S11307F0432E642E752E6A877987B82FA92F02E0BD
S11308000E947C0CA22EB32EC42ED52EE62EF72EDB
S1130810082F192F232D342D462D572D6A857985C0
S11308208B2F9A2F0E94950CA22FB32EC42ED52E57
S1130830E62EF72E082F192F3196E815F90564F2E4
S113084013C0AAE0B12CC12CD12CE12CF12C00E076
S113085010E00AC0812C912CAAE0B12CC12CD12C1F
S1130860E12CF12C00E010E08114910409F41BC187
S113087029813A814B815C816D817E818F8198854C
S1130880AA2E0E94A70C0CF4FDC00FEF801A900A48
S113089012E081169104ACF2AAE0B12CC12CD12C47
S11308A0E12CF12C00E010E0E1E0F0E095CF842FA2
S11308B090E01C0121E0221A310833200CF401C11C
S11308C0852D90E08B879C87412C512C92E0291632
S11308D031047CF12AE030E040E050E060E070E078
S11308E080E090E0E1E0F0E001E00E947C0C622E08
S11308F0732E842E952E6A877987B82FA92F02E04C
S11309000E947C0CA22EB32EC42ED52EE62EF72EDA
S1130910082F192F262D372D482D592D6A857985B5
S11309208B2F9A2F0E94950C3196E215F305E1F670
S113093008C02AE030E040E050E060E070E080E091
S113094090E02114310449F02D87732E842E952EC6
S11309506E8779878A87692E09C001E00D87712C1B
S1130960812C912C1E8619861A86612CAD84B72C95
S1130970C82CD92CEE84F9840A85162D242D352D06
S1130980952D990F990B492F592F692F792F892F5D
S11309900E94230CA22EB32EC42ED52EE62EF72EA3
S11309A0082F192F29813A814B815C816D817E81C9
S11309B08F8198850E949E0CA0E00E94B00C24F0C8
S11309C01FEF411A510A82CF2D853E851414150458
S11309D0ECF5A20141505109952F990F990BA22EC4
S11309E0B72CC82CD92CE32EF9840A85162D242F74
S11309F0352F492F592F692F792F892F0E94230CC6
S1130A00A22EB32EC42ED52EE62EF72E082F192F84
S1130A1029813A814B815C816D817E818F819885AA
S1130A200E949E0C29833A834B835C836D837E836F
S1130A308F839887E0914C21F0914D218B859C8583
S1130A40E80FF91F8FE2840D80830DC0E0914C21E3
S1130A50F0914D21CB84DC84EC0DFD1D0F2EF0E3D1
S1130A60DF2EF02DD08201E0201A31082B853C8541
S1130A702F5F3F4F2B873C873FEF2316330609F048
S1130A8023CF1FC0140181E0281A310816CF9FEF2D
S1130A90891A990AAAE0B12CC12CD12CE12CF12C91
S1130AA000E010E0E1CE29813A814B815C816D81C7
S1130AB07E818F819885A0E00E94B00C19F314F315
S1130AC0E6CF2E96CDBFDEBFDF91CF911F910F9160
S1130AD0FF90EF90DF90CF90BF90AF909F908F905A
S1130AE07F906F905F904F903F902F900895609308
S1130AF04E21FC019191992379F080914E21A0918E
S1130B004C21B0914D21A80FB11D9C9380914E2191
S1130B108F5F80934E21EECF0895CF92DF92EF92B4
S1130B20FF92BC0180E090E00E94FF0A6B017C010F
S1130B309B01AC010E94920B24EA3DE843EE5DE385
S1130B400E94920B0E94D00A7695679576956795D8
S1130B506093380A7093390A2FE832EC45EF50E479
S1130B60C701B6010E945E0A0E94D00ADC01CB01D3
S1130B7043E06CE10E94C203FF90EF90DF90CF90BE
S1130B800895CF93DF93C0912008D0912108BE012E
S1130B9080E090E00E94FF0A26EF37EF4FE356E42F
S1130BA00E948D0B181634F0C032D10528F4C0E031
S1130BB0D0E002C0C0E0D0E3D295C295CF70CD277B
S1130BC0DF70CD27C0932321D0932421809123214A
S1130BD0909124210E948D05DF91CF910895811178
S1130BE033C080919321882331F08AEE90E2809380
S1130BF04F219093502184E290E280934C21909372
S1130C004D2110929621E6E4F8E080818360808390
S1130C10E3EAF9E0808180628083E4EAF9E080819C
S1130C2080618083809101209091022043E066E1FD
S1130C300E94C203809101209091022043E06CE164
S1130C4001960E94C2030895813041F58091932159
S1130C50882331F086E690E280934F2190935021CF
S1130C6083E090E280934C2190934D2181E0809326
S1130C709621E6E4F8E080818C7F8083E3EAF9E062
S1130C8080818F7D8083E4EAF9E080818F7E808398
S1130C9080912321909124210E948D05089583E160
S1130CA090E00E94DB0C809323219093242185E122
S1130CB090E00E94DB0C809301209093022080E15D
S1130CC090E00E94CB0C882351F0809123219091D5
S1130CD024210E948D0581E00E94EF05089580E0A3
S1130CE00E94EF050895CF9390911D21981781F0EC
S1130CF0C82F882331F06FE08BE091E20E947705E2
S1130D0005C06FE082E191E20E947705C0931D2146
S1130D10CF9108958130D9F030F08230F1F18330F1
S1130D2009F462C0089510929521E0E0F8E0808112
S1130D308E7F8083E6E0F8E080818E7F8083E7E029
S1130D40F8E080818A7F80830E944D02089580EAC2
S1130D5090E08093200890932108E1E0F8E08081FE
S1130D60887F808380E491E080932608909327080D
S1130D70E6E0F8E080818160808391E090931E2119
S1130D80E7E0F8E080818A7F808390939521E0E01A
S1130D90F8E0808181608083089580EA90E0809308
S1130DA0200890932108E1E0F8E08081887F808327
S1130DB080E491E08093260890932708E6E0F8E029
S1130DC080818160808381E080931E21E7E0F8E0E8
S1130DD080818A7F808382E080939521E0E0F8E03F
S1130DE0808181608083089583E080939521E0E091
S1130DF0F8E0808181608083E1E0F8E080818760B1
S1130E008083E6E0F8E080818E7F8083E7E0F8E08D
S1130E1080818A7F808380E290E380932608909388
S1130E202708809123219091242182959295907F87
S1130E309827807F9827809320089093210808950D
S1130E4080E00E948A0682E791E280934F2190938A
S1130E5050211092932184E89EE180932609909377
S1130E60270980E00E94730608951F920F920FB61F
S1130E700F9211248F93EF93FF93E2E5F6E08081C4
S1130E8080648083E7E0F9E080818E7F8083FF9136
S1130E90EF918F910F900FBE0F901F9018951F9296
S1130EA00F920FB60F9211248F939F93EF93FF939A
S1130EB088EE93E0809326099093270910921C21D1
S1130EC0E7E0F9E080818B7F8083FF91EF919F9130
S1130ED08F910F900FBE0F901F90189580919321C2
S1130EE081110FC088EE93E080932609909327091F
S1130EF081E08093932110929421109228211092E2
S1130F0029218091962181113CC0809194218230C5
S1130F1011F128F4882341F0813081F032C083300C
S1130F2021F1843061F12DC08AEE90E280934F214B
S1130F309093502181E00E948A0623C089EC90E2BC
S1130F4080934F219093502184E68093002082E087
S1130F500E948A0616C088EA90E280934F219093FB
S1130F6050218AE0809300204BC087E890E2809370
S1130F704F219093502181E08093002041C00E9432
S1130F802007809196218130D9F580919421813078
S1130F9071F018F0823091F133C086E690E28093CC
S1130FA04F219093502181E00E948A0629C081E05C
S1130FB090E080932009909321098BE197EB809333
S1130FC026099093270910922A0910922B09ECE024
S1130FD0F9E080818062808381E080931C21E7E0D6
S1130FE0F9E080818460808385E490E280934F21DE
S1130FF09093502183E00E948A0602C00E94200739
S1131000809194218F5F8093942108951F920F9271
S11310100FB60F9211242F933F934F935F936F93C7
S11310207F938F939F93AF93BF93EF93FF9380919D
S11310301C21882389F081E00E947306E7E0F9E02F
S113104080818B7F808310921C2188EE93E08093B3
S113105026099093270902C00E946E0780911C21E3
S113106081110AC0E2E5F6E080818F7B8083E7E0AE
S1131070F9E0808181608083FF91EF91BF91AF910E
S11310809F918F917F916F915F914F913F912F919C
S11310900F900FBE0F901F9018951F920F920FB6CE
S11310A00F9211242F933F934F935F936F937F93EA
S11310B08F939F93AF93BF93EF93FF9380911E21E0
S11310C081113CC080919521823019F580910120D5
S11310D09091022020910020821B91091816190674
S11310E00CF04DC08091200890912108803A910520
S11310F040F545C08091200890912108803A9105DF
S113110008F44AC080EA90E0809320089093210874
S113111061C08091200890912108803A910520F4C3
S113112080E00E94EF0503C081E00E94EF0580EAA1
S113113090E080932008909321084CC010921E21C7
S113114049C0209100208091012090910220821BAF
S11311509109809301209093022080910120909125
S1131160022043E066E10E94C20380910120909135
S1131170022043E06CE101960E94C203C3CF209198
S113118000208091012090910220820F911D8115F1
S113119092400CF4AFCFB6CF209100208091012073
S11311A090910220820F911D809301209093022040
S11311B0809101209091022043E066E10E94C203E5
S11311C0809101209091022043E06CE101960E94FD
S11311D0C20398CFFF91EF91BF91AF919F918F91EF
S11311E07F916F915F914F913F912F910F900FBE1F
S11311F00F901F9018951F920F920FB60F92112403
S11312002F933F934F935F936F937F938F939F930A
S1131210AF93BF93EF93FF9380911D21882329F00F
S1131220109228211092292109C08091282190919F
S113123029210196809328219093292180912821A6
S113124090912921409748F010921C21E7E0F9E0A1
S113125080818B7F80830E942007FF91EF91BF9153
S1131260AF919F918F917F916F915F914F913F913A
S11312702F910F900FBE0F901F9018951F920F92F1
S11312800FB60F9211242F933F934F935F936F9355
S11312907F938F939F93AF93BF93EF93FF9390911B
S11312A0A1098091A00994FD55C090E040912121AD
S11312B0509122212091012030910220421753079E
S11312C031F4382F222720931F213093202120919D
S11312D001203091022040912121509122212F5F41
S11312E03F4F24173507C9F420911F213091202145
S11312F0282B392B20931F213093202120911F214B
S11313003091202136952795369527952093380AD4
S11313103093390A21E020932A2120912521222388
S113132059F021E020932A2120912121309122217A
S1131330232B11F4892B99F0109226211092272146
S113134080912121909122210196809321219093D3
S1131350222110C010922121109222210BC0109240
S113136025216AE08DE091E20E94770581E0809377
S11313702A21E2CFFF91EF91BF91AF919F918F917D
S11313807F916F915F914F913F912F910F900FBE7D
S11313900F901F9018951F920F920FB60F92112461
S11313A02F933F934F935F936F937F938F939F9369
S11313B0AF93BF93CF93EF93FF93809126219091A6
S11313C0272101968093262190932721809126211D
S11313D090912721873E9C4290F080912521811194
S11313E00EC0C1E0C09325216AE084E191E20E942D
S11313F07705C0932A211092262110922721FF916C
S1131400EF91CF91BF91AF919F918F917F916F9108
S11314105F914F913F912F910F900FBE0F901F90AE
S1131420189588EB809341060E941D012FEF85EDEE
S113143096E0215080409040E1F700C000000E94F7
S1131440E8010E944F060E9462012FEF83EC99E0AD
S1131450215080409040E1F700C000000E946901E3
S11314600E94BC010E9407020E9439010E942D02C1
S11314700E9489020E94E301C1E0809193218823A4
S113148059F080919521833011F40E94C1050E9486
S11314908902C0932A2108C080912A21882321F03F
S11314A00E94890210922A212FEF83EF91E02150AC
S11314B080409040E1F700C00000DFCF0E94720A34
S11314C00C94530B0E944C0B58F00E94450B40F0B7
S11314D029F45F3F29F00C943C0B51110C94870BB9
S11314E00C94420B0E94640B68F39923B1F35523C7
S11314F091F3951B550BBB27AA2762177307840723
S113150038F09F5F5F4F220F331F441FAA1FA9F3B8
S113151035D00E2E3AF0E0E832D091505040E695A6
S1131520001CCAF72BD0FE2F29D0660F771F881F07
S1131530BB1F261737074807AB07B0E809F0BB0BFA
S1131540802DBF01FF2793585F4F3AF09E3F51050E
S113155078F00C943C0B0C94870B5F3FE4F3983EBB
S1131560D4F3869577956795B795F7959F5FC9F7F7
S1131570880F911D9695879597F90895E1E0660F78
S1131580771F881FBB1F621773078407BA0720F0F1
S1131590621B730B840BBA0BEE1F88F7E09508955A
S11315A00E946C0B88F09F5798F0B92F9927B75178
S11315B0B0F0E1F0660F771F881F991F1AF0BA95F3
S11315C0C9F714C0B13091F00E94860BB1E00895C0
S11315D00C94860B672F782F8827B85F39F0B93FB2
S11315E0CCF3869577956795B395D9F73EF49095A6
S11315F08095709561957F4F8F4F9F4F0895E89424
S113160009C097FB3EF490958095709561957F4F46
S11316108F4F9F4F9923A9F0F92F96E9BB279395F4
S1131620F695879577956795B795F111F8CFFAF404
S1131630BB0F11F460FF1BC06F5F7F4F8F4F9F4F35
S113164016C0882311F096E911C0772321F09EE893
S1131650872F762F05C0662371F096E8862F70E0F9
S113166060E02AF09A95660F771F881FDAF7880FD3
S11316709695879597F9089597F99F6780E870E0A4
S113168060E008959FEF80EC089500240A941616F4
S1131690170618060906089500240A94121613065C
S11316A0140605060895092E0394000C11F48823EA
S11316B052F0BB0F40F4BF2B11F460FF04C06F5F06
S11316C07F4F8F4F9F4F089557FD9058440F551FDC
S11316D059F05F3F71F04795880F97FB991F61F0B0
S11316E09F3F79F087950895121613061406551F27
S11316F0F2CF4695F1DF08C0161617061806991F93
S1131700F1CF86957105610508940895E894BB2787
S113171066277727CB0197F908950E94FF0B08F4F9
S11317208FEF08950E94A50B0C94530B0E94450B58
S113173038F00E944C0B20F0952311F00C943C0BD4
S11317400C94420B11240C94870B0E94640B70F3CD
S1131750959FC1F3950F50E0551F629FF001729F52
S1131760BB27F00DB11D639FAA27F00DB11DAA1F61
S1131770649F6627B00DA11D661F829F2227B00DAE
S1131780A11D621F739FB00DA11D621F839FA00D39
S1131790611D221F749F3327A00D611D231F849F89
S11317A0600D211D822F762F6A2F11249F575040E0
S11317B09AF0F1F088234AF0EE0FFF1FBB1F661F5B
S11317C0771F881F91505040A9F79E3F510580F024
S11317D00C943C0B0C94870B5F3FE4F3983ED4F3DA
S11317E0869577956795B795F795E7959F5FC1F7C8
S11317F0FE2B880F911D9695879597F90895990F5B
S11318000008550FAA0BE0E8FEEF16161706E807C6
S1131810F907C0F012161306E407F50798F0621BE7
S1131820730B840B950B39F40A2661F0232B242BBC
S1131830252B21F408950A2609F4A140A6958FEFDB
S1131840811D811D0895DF93CF931F930F939A9D5C
S1131850F02D219FF00D8B9DF00D8A9DE02DF10D53
S1131860039FF00D029FE00DF11D4E9DE00DF11D53
S11318705E9DF00D4F9DF00D7F936F93BF92AF92DD
S11318805F934F93D5010E94BC0C8B01AC01D7012F
S11318900E94BC0CEB01E80FF91FD6010E94730CE7
S11318A02F913F91D6010E94BC0CC60FD71FE81F91
S11318B0F91FAF91BF910E94730C2F913F910E9429
S11318C0BC0CC60FD71FE81FF91FD6010E94BC0C21
S11318D0E60FF71F9801BE01CF0111240F911F914C
S11318E0CF91DF9108950E94BC0C460F571FC81F6B
S11318F0D91F08F4319608950F93083090F0982F6B
S1131900872F762F652F542F432F322F22270850ED
S1131910F4CF220F331F441F551F661F771F881FE4
S1131920991F0A95B2F70F9108952A0D3B1D4C1D7E
S11319305D1D6E1D7F1D801F911F08952A193B098F
S11319404C095D096E097F09800B910B08952A15D6
S11319503B054C055D056E057F05800791070895DD
S11319600024A7FD00942A173005400550056005A2
S11319707005800590050895A29FB001B39FC00132
S1131980A39F700D811D1124911DB29F700D811DA7
S11319901124911D089503D0808199270895E0ECC6
S11319A0F1E0378537FDFDCF348538603487FC019D
S11319B0E050F04F08950E94CF0C808191810895EA
S11319C0262FE0ECF1E0378537FDFDCF3485377FF6
S11319D03487378531FF09C036E3328738ED34BFA9
S11319E031E03387378537FDFDCF33E3328780839A
S11319F091831282248325E3228728ED31E024BFDA
S1131A003387019608950E94E00C272F0C94E10C73
S1071A10F894FFCF74
S1131A140101004D6F64653A204D616E75616C205F
S1131A242020204272696768746E6573733A2020BB
S1131A34202025004D6F64653A20444D5820202011
S1131A44202020204368616E3A2020202020262074
S1131A5420202020000000000000000000000000FE
S1131A64000000000000000000000000000000006E
S1131A740001010100000000000000000101010157
S1131A84010100000000000000000000000000004C
S1131A94000000000000000000000000000000003E
S1131AA4000000000000000000000000000000012D
S1131AB4000000000001000000000000000000001D
S1131AC4000000000000000000000000000000010D
S1131AD400000000000100000000000000000000FD
S1131AE400000000000000000000000000000001ED
S1131AF400000000000100000000000000000000DD
S1131B0401010100000000000000000000000000CA
S1131B14000000000000000000000050002020200D
S10F1B24202020004E4F20444D580000AB
S9030000FC
